:020000040000FA
:0600000064EF16F012008F
:0A0006000200262D0000600000003B
:100010003F000000242D0000A900000002000000A5
:10002000D9CFE6FFE1CFD9FF6B0EE126670EDB6A81
:10003000680EDB6A690EDB6A6A0EDB6A07EC05F0A4
:1000400093869494738A51DBE66A25EC16F0E552A8
:10005000180E146E270E156E166A14C0E6FF15C032
:10006000E6FF16C0E6FF620EE66E000EE66E02ECDC
:1000700014F0176E050EE15E1750000EE66EE66A8C
:10008000620EE66E000EE66EA0DAE552E552E5522B
:10009000E552030E146E270E156E166A14C0E6FFA5
:1000A00015C0E6FF16C0E6FF620EE66E000EE66EB5
:1000B00002EC14F0176E050EE15E1750010EE66EAD
:1000C000E66A620EE66E000EE66E7FDAE552E552F3
:1000D000E552E552EE0E146E260E156E166A14C029
:1000E000E6FF15C0E6FF16C0E6FF620EE66E000EE4
:1000F000E66E02EC14F0176E050EE15E1750020E6C
:10010000E66EE66A620EE66E000EE66E5EDAE552B6
:10011000E552E552E552D90E146E260E156E166A9A
:1001200014C0E6FF15C0E6FF16C0E6FF620EE66EDD
:10013000000EE66E02EC14F0176E050EE15E17502D
:10014000030EE66EE66A620EE66E000EE66E3DDABD
:10015000E552E552E552E552E66A25EC16F0E55225
:10016000E66A25EC16F0E552E66A25EC16F0E55253
:10017000E66A25EC16F0E552CBDACADAD950670FF9
:10018000E66E000EDA20E66ED950460FE66E000EDF
:10019000DA20E66ED950060FE66E000EDA20E66E23
:1001A0000BEC05F0146E060EE15E1450D950040FEE
:1001B000E66E000EDA20E66ED950020FE66E000EF3
:1001C000DA20E66ED9CFE6FFDACFE6FFD950060F88
:1001D000E66E000EDA20E66E46EC06F0146E080EAF
:1001E000E15E1450DECF14F0DDCF15F0640E0D6E1D
:1001F0000E6A14C008F015C009F03CEC16F004C0FB
:1002000014F005C015F014C0E6FF15C0E6FFDECF00
:1002100016F0DDCF17F0640E0D6E0E6A16C008F0F2
:1002200017C009F03CEC16F008C016F009C017F032
:1002300016C0E6FF17C0E6FFBF0E186E260E196E39
:100240001A6A18C0E6FF19C0E6FF1AC0E6FF620E80
:10025000E66E000EE66E02EC14F01B6E090EE15E17
:100260001B50000EE66EE66A620EE66E000EE66E4B
:10027000ACD9E552E552E552E552040EDBCF14F05D
:10028000050EDBCF15F0640E0D6E0E6A14C008F07B
:1002900015C009F03CEC16F004C014F005C015F0D0
:1002A00014C0E6FF15C0E6FF040EDBCF16F0050E06
:1002B000DBCF17F0640E0D6E0E6A16C008F017C083
:1002C00009F03CEC16F008C016F009C017F016C093
:1002D000E6FF17C0E6FFA50E186E260E196E1A6A05
:1002E00018C0E6FF19C0E6FF1AC0E6FF620EE66E10
:1002F000000EE66E02EC14F01B6E090EE15E1B5060
:10030000010EE66EE66A620EE66E000EE66E5DD9DE
:10031000E552E552E552E552020EDBCF14F0030E32
:10032000DBCF15F0640E0D6E0E6A14C008F015C018
:1003300009F03CEC16F004C014F005C015F014C030
:10034000E6FF15C0E6FF020EDBCF16F0030EDBCF93
:1003500017F0640E0D6E0E6A16C008F017C009F093
:100360003CEC16F008C016F009C017F016C0E6FF06
:1003700017C0E6FF8B0E186E260E196E1A6A18C08B
:10038000E6FF19C0E6FF1AC0E6FF620EE66E000E39
:10039000E66E02EC14F01B6E090EE15E1B50020EBD
:1003A000E66EE66A620EE66E000EE66E0ED9E55265
:1003B000E552E552E552D950670FE96EDACFEAFF10
:1003C000D890030EEB50000A08E6000EEE5C000E1B
:1003D000EE58000EEE58000EEE586CE3670EDBCFC1
:1003E00014F0680EDBCF15F0690EDBCF16F06A0E45
:1003F000DBCF17F0640E0B6E0C6A0D6A0E6A14C028
:1004000006F015C007F016C008F017C009F0A1ECFF
:1004100013F002C014F003C015F004C016F005C0BC
:1004200017F014C0E6FF15C0E6FF16C0E6FF17C0C0
:10043000E6FF670EDBCF18F0680EDBCF19F0690E10
:10044000DBCF1AF06A0EDBCF1BF0640E0B6E0C6A6A
:100450000D6A0E6A18C006F019C007F01AC008F03D
:100460001BC009F0A1EC13F006C018F007C019F08A
:1004700008C01AF009C01BF018C0E6FF19C0E6FF5B
:100480001AC0E6FF1BC0E6FF700E1C6E260E1D6E26
:100490001E6A1CC0E6FF1DC0E6FF1EC0E6FF620E1E
:1004A000E66E000EE66E02EC14F01F6E0D0EE15EBD
:1004B0001F507BD0670EDBCF14F0680EDBCF15F03A
:1004C000690EDBCF16F06A0EDBCF17F0000E146C4E
:1004D000151E1522161E1622171E1722640E0B6EED
:1004E0000C6A0D6A0E6A14C006F015C007F016C03B
:1004F00008F017C009F0A1EC13F002C014F003C01B
:1005000015F004C016F005C017F014C0E6FF15C0C2
:10051000E6FF16C0E6FF17C0E6FF670EDBCF18F058
:10052000680EDBCF19F0690EDBCF1AF06A0EDBCF55
:100530001BF0000E186C191E19221A1E1A221B1EFF
:100540001B22640E0B6E0C6A0D6A0E6A18C006F050
:1005500019C007F01AC008F01BC009F0A1EC13F095
:1005600006C018F007C019F008C01AF009C01BF047
:1005700018C0E6FF19C0E6FF1AC0E6FF1BC0E6FF81
:10058000570E1C6E260E1D6E1E6A1CC0E6FF1DC097
:10059000E6FF1EC0E6FF620EE66E000EE66E02EC9F
:1005A00014F01F6E0D0EE15E1F50E66A25EC16F08A
:1005B000E552E3D56B0EE15C03E200D0E16AE5525F
:1005C000E16EE552E7CFD9FF1200D9CFE6FFE1CFC8
:1005D000D9FF020EE126560EC812500EE66EA6D8BE
:1005E000E552FE0EC96EB9D8450EC96EB6D8D950BF
:1005F000FB0FE96EFF0EDA20EA6EEE50ED1002E11D
:10060000C96A2BD0D950FB0FE96EFF0EDA20EA6ED3
:10061000010EEE1801E1ED5003E1280EC96E1DD068
:10062000D950FB0FE96EFF0EDA20EA6E020EEE18CB
:1006300001E1ED5003E1140EC96E0FD0D950FB0F4C
:10064000E96EFF0EDA20EA6E030EEE1801E1ED50BE
:1006500003E13C0EC96E01D022D07FD8DE6ADD6A8C
:10066000DECF14F0DDCF15F0140E145C000E15581B
:1006700014E2FD0EDBCF14F0FE0EDBCF15F0DE50E2
:100680001424E96EDD501520EA6EEF50C96E65D86E
:10069000DF2A010E01E3DB2AE3D7C58400D0020E76
:1006A000E15C02E2E16AE552E16EE552E7CFD9FF93
:1006B0001200470EE66EE66A3C0EE66EF3EC14F0AE
:1006C000E552E552E552420E146E260E156E166A7C
:1006D00014C0E6FF15C0E6FF16C0E6FFA7EC14F055
:1006E000E552E552E55200D0120094689494380E19
:1006F000C66E560EC812500EE66E18D8E552FE0EA3
:10070000C96E2BD8510EC96E28D8C58400D01200EE
:10071000560EC812500EE66E09D8E552FE0EC96E8E
:100720001CD8510EC96E19D8C5841200D9CFE6FF66
:10073000E1CFD9FFC580C5B0FED79E96FE0EDB5037
:10074000C96E0BD8C5AC04D0C582C5B2FED7F5D7EB
:1007500000D0E552E7CFD9FF1200D9CFE6FFE1CFB5
:10076000D9FF020EE126090EDF6EDE52C40EDD6EE9
:100770009E969E50080B08E1DF5006E0010EDB0656
:10078000DB5001E1DF06F5D79E96020EE15C02E246
:10079000E16AE552E16EE552E7CFD9FF1200D9CF09
:1007A000E6FFE1CFD9FF150EE126D9CFE9FFDACF79
:1007B000EAFF200EEE6EEE6EEE6EEE6EEE6EEE6EFA
:1007C000EE6EEE6EEE6EEE6EEE6EEE6EEE6EEE6E49
:1007D000EE6EEE6EEE6EEE6EEE6EEE6EEE6A150E76
:1007E000DB6A2D0E146E260E156E166A14C0E6FF17
:1007F00015C0E6FF16C0E6FFDFCFE6FFE66A02ECB3
:1008000014F0176E050EE15E1750000EE66EE66AF4
:10081000DFCFE6FFE66AD9DEE552E552E552E55262
:10082000DFCFE6FFE66A280E146E260E156E166AF6
:1008300014C0E6FF15C0E6FF16C0E6FFA7EC14F0F3
:10084000176E050EE15E175063DF130E146E260E51
:10085000156E166A14C0E6FF15C0E6FF16C0E6FF67
:10086000D9CFE6FFDACFE6FF02EC14F0176E050EE3
:10087000E15E1750000EE66EE66AD9CFE6FFDACFEA
:10088000E6FFA3DEE552E552E552E552D9CFE6FF99
:10089000DACFE6FF280E146E260E156E166A14C007
:1008A000E6FF15C0E6FF16C0E6FFA7EC14F0176ED2
:1008B000050EE15E1750FE0E146E250E156E166ABB
:1008C00014C0E6FF15C0E6FF16C0E6FFD9CFE6FF6D
:1008D000DACFE6FF02EC14F0176E050EE15E17505A
:1008E000010EE66EE66AD9CFE6FFDACFE6FF6DDEEF
:1008F000E552E552E552E552D9CFE6FFDACFE6FF01
:10090000280E146E260E156E166A14C0E6FF15C06A
:10091000E6FF16C0E6FFA7EC14F0176E050EE15EC9
:100920001750E90E146E250E156E166A14C0E6FFF8
:1009300015C0E6FF16C0E6FFD9CFE6FFDACFE6FF27
:1009400002EC14F0176E050EE15E1750020EE66E13
:10095000E66AD9CFE6FFDACFE6FF37DEE552E552A9
:10096000E552E552D9CFE6FFDACFE6FF280E146E46
:10097000260E156E166A14C0E6FF15C0E6FF16C0F7
:10098000E6FFA7EC14F0176E050EE15E1750D40ECB
:10099000146E250E156E166A14C0E6FF15C0E6FF2C
:1009A00016C0E6FFD9CFE6FFDACFE6FF02EC14F07F
:1009B000176E050EE15E1750030EE66EE66AD9CF9C
:1009C000E6FFDACFE6FF01DEE552E552E552E552F9
:1009D000D9CFE6FFDACFE6FF280E146E260E156E8D
:1009E000166A14C0E6FF15C0E6FF16C0E6FFA7ECC6
:1009F00014F0176E050EE15E1750150EE15C02E271
:100A0000E16AE552E16EE552E7CFD9FF1200938625
:100A1000949433EF0EF0D9CFE6FFE1CFD9FF1A0E51
:100A2000E1260B0EDB6A0C0EDB6A0D0EDB6A0E0E86
:100A3000DB6A0F0EDB6A100EDB6A110EDB6A120E28
:100A4000DB6A130EDB6A140EDB6A150EDB6A160E08
:100A5000DB6A170EDB6A180EDB6A190EDB6A0B0EF7
:100A6000DB6AD950150FE66E000EDA20E66ED9501B
:100A7000140FE66E000EDA20E66ED9500C0FE66E0B
:100A8000000EDA20E66ED950160FE66E000EDA2060
:100A9000E66ECEEC0FF0146E080EE15E1450E76EB9
:100AA0000B0EE7CFDBFFDB0401E0E5D00B0EDB6ACA
:100AB000160EDBCF14F0170EDBCF15F0180EDBCFC0
:100AC00016F0190EDBCF17F0FD0E1412141805E105
:100AD000155003E1165001E1175063E1FC0E146E4E
:100AE000156A166A176AD950160FE96EDACFEAFF4F
:100AF000EE501416EE501516EE501616EE50171650
:100B0000020ED8901732163215321432E806F9E187
:100B1000070E14C0DBFF080E15C0DBFFD9500C0F09
:100B2000E66E000EDA20E66ED950040FE66E000E77
:100B3000DA20E66E50DAE552E552E552E5520E0E45
:100B4000DB50E76E060EE7CFDBFF070EDBCF14F0BE
:100B5000080EDBCF15F0010ED89014361536E806D6
:100B6000FBE1FD0EDB501424E96EFE0EDB50152078
:100B7000EA6E040EDBCFEEFF050EDBCFEDFF070EB6
:100B8000DBCF14F0080EDBCF15F0FB0EDB50142486
:100B9000E96EFC0EDB501520EA6E060EDBCFEFFF90
:100BA0002AD0D950160FE96EDACFEAFF010EEE18FF
:100BB00006E1010EEE1803E1EE5001E1EE501BE1FB
:100BC000140EDB50040817E1D9500C0F146EDACF65
:100BD00015F0090E14C0DBFF0A0E15C0DBFF090E6D
:100BE000DBCF08F00A0EDBCF09F0F90E08C0DBFFFF
:100BF000FA0E09C0DBFFDE6ADE6ADE6ADD6ADD52FC
:100C0000DD52D9CFE9FFDACFEAFFE80EEE5C030E42
:100C1000EE58000EEE58000EEE580AE2D9CFE9FF6A
:100C2000DACFEAFFEE2A000EEE22EE22EE22E9D71C
:100C3000D950150FE66E000EDA20E66ED950140F6B
:100C4000E66E000EDA20E66ED9500C0FE66E000E4E
:100C5000DA20E66ED950160FE66E000EDA20E66E48
:100C6000CEEC0FF0146E080EE15E1450E76E0B0E22
:100C7000E7CFDBFF18D71A0EE15C03E200D0E16A90
:100C8000E552E16EE552E7CFD9FF1200D9CFE6FF7A
:100C9000E1CFD9FF060EE126DE6ADD6A020EDB6ACD
:100CA000030EDB6A040EDB6A050EDB6AF70EDBCF90
:100CB000E9FFF80EDBCFEAFFEE6AED6AFB0EDBCF51
:100CC000E9FFFC0EDBCFEAFFEE6AED6AF90EDBCF3F
:100CD000E9FFFA0EDBCFEAFFEE68ED68DE6ADD6A57
:100CE000DECF14F0DDCF15F0200E145C000E155889
:100CF00001E3F7D0DECF16F0DDCF17F0010ED8906C
:100D000016361736E806FBE1FD0EDB501624E96EB9
:100D1000FE0EDB501720EA6EEECF14F0EFCF15F089
:100D2000FB0EDBCFE9FFFC0EDBCFEAFFEECF18F0C6
:100D3000EFCF19F01450185C1550195820E2DECF8F
:100D400016F0DDCF17F0010ED89016361736E806EC
:100D5000FBE1FD0EDB501624E96EFE0EDB50172082
:100D6000EA6EEECF14F0EFCF15F0FB0EDBCFE9FF0C
:100D7000FC0EDBCFEAFF14C0EEFF15C0EDFFDECFA7
:100D800016F0DDCF17F0010ED89016361736E806AC
:100D9000FBE1FD0EDB501624E96EFE0EDB50172042
:100DA000EA6EEECF14F0EFCF15F0F90EDBCFE9FFCE
:100DB000FA0EDBCFEAFFEECF18F0EFCF19F01850A4
:100DC000145C1950155820E2DECF16F0DDCF17F075
:100DD000010ED89016361736E806FBE1FD0EDB5003
:100DE0001624E96EFE0EDB501720EA6EEECF14F0EB
:100DF000EFCF15F0F90EDBCFE9FFFA0EDBCFEAFFFC
:100E000014C0EEFF15C0EDFF020EDBCF14F0030E91
:100E1000DBCF15F0040EDBCF16F0050EDBCF17F09D
:100E2000145015101610171037E0DECF18F0DDCF74
:100E300019F0010ED89018361936E806FBE1FD0EC0
:100E4000DB501824E96EFE0EDB501920EA6EEECF5F
:100E500014F0EFCF15F0166A176AD950020FE96E39
:100E6000DACFEAFFEE501426EE501522EE5016228D
:100E7000EE501722D8901732163215321432020E65
:100E800014C0DBFF030E15C0DBFF040E16C0DBFF32
:100E9000050E17C0DBFF20D0DECF16F0DDCF17F038
:100EA000010ED89016361736E806FBE1FD0EDB5032
:100EB0001624E96EFE0EDB501720EA6EEECF14F01A
:100EC000EFCF15F0020E14C0DBFF030E15C0DBFFE1
:100ED000040EDB6A050EDB6ADF2A010E01E3DB2A62
:100EE000FFD6F70EDBCFE9FFF80EDBCFEAFF020EED
:100EF000DBCFEEFF030EDBCFEDFFFB0EDBCFE9FF19
:100F0000FC0EDBCFEAFFEECF14F0EFCF15F0640E4E
:100F10000D6E0E6A14C008F015C009F03CEC16F016
:100F200008C014F009C015F0FB0EDBCFE9FFFC0E82
:100F3000DBCFEAFF14C0EEFF15C0EDFFF90EDBCFEB
:100F4000E9FFFA0EDBCFEAFFEECF14F0EFCF15F09A
:100F5000640E0D6E0E6A14C008F015C009F03CEC6A
:100F600016F008C014F009C015F0F90EDBCFE9FF48
:100F7000FA0EDBCFEAFF14C0EEFF15C0EDFFF70E4F
:100F8000DBCFE9FFF80EDBCFEAFFEECF14F0EFCFB7
:100F900015F0640E0D6E0E6A14C008F015C009F04D
:100FA0003CEC16F008C014F009C015F0F70EDBCFCA
:100FB000E9FFF80EDBCFEAFF14C0EEFF15C0EDFF2E
:100FC000060EE15C03E200D0E16AE552E16EE55213
:100FD000E7CFD9FF1200D9CFE6FFE1CFD9FFFB0E53
:100FE000DBCFE9FFFC0EDBCFEAFFEF50E66EFD0E34
:100FF000DBCFE9FFFE0EDBCFEAFFE552E750EF6EF5
:10100000010EE76EFB0EDBCFE9FFFC0EDBCFEAFF44
:10101000E750E926000EEA22EF50E66E010EE76E79
:10102000FD0EDBCFE9FFFE0EDBCFEAFFE750E9263E
:10103000000EEA22E552E750EF6E00D0E552E7CF0E
:04104000D9FF1200C2
:0C1044005EEC0DF0FB0EDBCFF3FFDB06D3
:10105000F35000090AE0ACEC0DF0FA0E17EC0EF0BC
:10106000F3E1151CF1E1010E01D0000E8DEF0DF042
:101070005EEC0DF03B0EE12402E3E168E652E16E26
:10108000010EDB6A020EDB6AF90EDBCFF6FFFA0E09
:10109000DBCFF7FFFB0EDBCFF8FF0800F550DF6E6C
:1010A000DF5002E1B1EF0CF0250EDF5C02E0A4EFAF
:1010B0000CF0030EDB6A040EDB6A050EDB6A060E1B
:1010C000DB6A070EDB6AC6EC0CF02D0EDF5C0CE071
:1010D0002B0EDF5C09E0200EDF5C06E0230EDF5CF8
:1010E00003E0300EDF5C1AE1DF50300A14E0130A2F
:1010F0000FE0030A0AE00B0A05E0060AE4E1030E2A
:10110000DB80E1D7030EDB82DED7030EDB84DBD787
:10111000030EDB86D8D7030EDB88D5D72A0EDF5C1B
:101120001BE1C2EC0CF010EC0DF010E0030EDB80C4
:1011300008680968130EDBCF0DF0140EDBCF0EF03C
:10114000D5EC13F0040E06C0DBFF03D0130EF9EC50
:101150000CF0C6EC0CF00BD0090EDB6A67EC0DF05E
:1011600003E0DBEC0DF0FAD7090EF9EC0CF0030EFE
:10117000DBB0DB982E0EDF5C1BE1C6EC0CF02A0E18
:10118000DF5C0BE1C2EC0CF010EC0DF003E1130E90
:101190004BEC0DF0C6EC0CF00BD0090EDB6A67ECE3
:1011A0000DF003E0DBEC0DF0FAD7090E4BEC0DF07F
:1011B000680EDF5C07E1C6EC0CF0680EDF5C1DE139
:1011C000030E18D0740EDF5C17E07A0EDF5C14E0BB
:1011D000480EDF5C06E0540EDF5C03E05A0EDF5C75
:1011E00002E1020E07D06C0EDF5C03E06A0EDF5CEA
:1011F00004E1010E9EEC0DF0C9DBDF506E0A01E147
:101200007FD31E0A01E192D1200A01E18FD13F0A6A
:1012100001E149D11A0A01E146D10D0A01E143D1A8
:10122000200A01E140D13A0A01E13DD1200A01E161
:101230003AD1260A01E135D10D0A01E132D11A0A6B
:1012400001E1D9D0200A4AE0300A1FE0460A0EE048
:10125000250A01E083D3D950F90FE96EFF0EDA2099
:10126000EA6E010EEE5E000EEE5AEE5AACEC0DF098
:10127000250EE66E95DB03E1151C01E169D3A8ECB0
:101280000DF001E26BD3DB2A69D3080EDB6A040E92
:10129000DB50010806E2040EDB0470EC0DF0DB50BD
:1012A0008BDB080EDB5009E0030EDB50010B05E180
:1012B00072DB01E04DD3080EDB6A64DBEFCFDFFFAA
:1012C00020EC0EF003E1151C01E142D3A8EC0DF077
:1012D00001E3DB2A60DB01E141D33AD3070EDB50A7
:1012E00002080FE1ECEC0DF0030EB3EC0DF00E0E66
:1012F000EECFDBFF0F0EEECFDBFF100EEECFDBFFEE
:1013000020D0F70EDBCF17F0F80EDBCF18F0020E6F
:10131000175E000E185AF70E17C0DBFFF80E18C044
:10132000DBFF17C0E9FF18C0EAFFA3EC0DF0166A57
:101330000E0E14C0DBFF0F0E15C0DBFF100E16C023
:10134000DBFF0E0EDBCFE6FF0F0EDBCFE6FF100E4E
:10135000DBCFE6FFC0EC15F0E552E552E552130E87
:1013600007C0DBFF140E08C0DBFF060EDB5005E0F4
:10137000130EE7EC0DF001E26ADB0BEC0EF002E27B
:10138000130E37DBCEEC0DF006E0040EE7EC0DF0AB
:1013900002E2050E2EDB030EDBB005D0FCDA01E025
:1013A000D7D2080EDB6A090EDB6A0E0EDBCFF6FF22
:1013B0000F0EDBCFF7FF100EDBCFF8FF0800F55064
:1013C000DF6EDF5014E011EC0EF011E220EC0EF0B5
:1013D00003E1151C01E1BCD2BBDB01E3DB2A090EF2
:1013E000DB2AD9500E0FE96E000ECBDBE7D7D3DA3C
:1013F00001E1B4D2ADD2C6DA110EEECFDBFF120E90
:10140000EDCFDBFF110EDBCFE6FF120EDBCFE6FFE9
:10141000B2EC15F0E552E552130EF3CFDBFF140EDC
:10142000F4CFDBFF060EDB5004E0130ED0DB01E24D
:101430000EDB0BEC0EF002E2130EDBDAAFDB05E0A5
:10144000040EC5DB02E2050ED4DA030EDBB005D0D4
:10145000A2DA01E07DD2080EDB6A090EDB6A110E0A
:10146000DBCFE9FF120EDBCFEAFFEFCFDFFFDF506C
:1014700014E0D7DB12E2E4DB03E1151C01E168D2E2
:1014800067DB01E3DB2A090EDB2A110EDB2ADBCF47
:10149000E9FF120EE8E3DB2AE6D77DDA01E15ED24E
:1014A00057D2030EDB8E070EDB0410E195DB040E32
:1014B0005ADB0A0EEECFDBFF0B0EEECFDBFF0C0E7E
:1014C000EECFDBFF0D0EEECFDBFF6CD0070EDB5057
:1014D00003082CE1030EDBAE0DD0B2DA020E76DA91
:1014E000EFCF14F0156A166A176A14AE39D0156872
:1014F000166835D0F70EDBCF15F0F80EDBCF16F0FF
:10150000020E155E000E165AF70E15C0DBFFF80E20
:1015100016C0DBFF15C0E9FF16C0EAFFEFCF14F0DD
:101520000A0E14C0DBFF0B0EDB6A38D0070EDB504F
:10153000020809E1030EDBAE04D059DB16AE10D071
:101540000ED055DB0DD0030EDBAE12D079DA020ED1
:101550003DDAF9DA166A176A15AE02D0166817680E
:10156000E2DA0C0E16C0DBFF0D0E17C0DBFF1AD03F
:10157000F70EDBCF16F0F80EDBCF17F0020E165E7B
:10158000000E175AF70E16C0DBFFF80E17C0DBFF70
:1015900016C0E9FF17C0EAFFD6DAC5DA0C0EDB6A1F
:1015A0000D0EDB6A060EDB5005E1010EF36E050E33
:1015B000F3CFDBFF150EDB6A160EDB6AD950370F4F
:1015C000146E000EDA20156E390E14C0DBFF3A0ED1
:1015D00015C0DBFF380EDB6A080EDB6A0A0EAEDAD6
:1015E000DF50780A12E0200A10E0280A0CE0200AF6
:1015F0000AE03F0A06E00D0A02E0200A08E1020EB6
:1016000005D0080E03D0080EDF26100E97DA030E61
:10161000DBBE02D0DB92DB94DB50800B24E08ADA65
:10162000D890030EEB50000A08E6000EEE5C000EA8
:10163000EE58000EEE58000EEE5815E213DA0B6865
:101640000C680D680E687AEC15F00A0E02C0DBFF1C
:101650000B0E03C0DBFF0C0E04C0DBFF0D0E05C03C
:10166000DBFF2D0E08D0030EDBA202D02B0E03D021
:10167000DBA408D0200EF36E170EF3CFDBFF150EA0
:10168000DB2A02D0170EDB6A050EDB5003E1B7D967
:1016900001E189D0000E146E2D0E156E000E166E2F
:1016A000070EDBCF17F0186A196A1A6A17C00BF019
:1016B00018C00CF019C00DF01AC00EF0D3D9E5EC2B
:1016C00015F014500224F36E15500320F46E1650DA
:1016D0000420F86EF4CFF7FFF3CFF6FF0800090EF1
:1016E000F5CFDBFF580EDF5C0FE1610EF36E090EE4
:1016F0007BD90AE3200E146E090EDBCFE7FF1450EE
:10170000E75E090EE7CFDBFF070EDBCF14F0156AAB
:10171000166A176A0FDA14C00BF015C00CF016C069
:101720000DF017C00EF0EECF06F0EECF07F0EECFC3
:1017300008F0EFCF09F0E5EC15F009C0EDFF08C0A7
:10174000EDFF07C0EDFF06C0EFFF390EDBCFE9FF6D
:10175000DB063A0EDBCFEAFF01E2DB06090EDBCF48
:10176000EFFF150EDB2A4BD995E1030EDBA61DD04A
:101770006F0EDF5C06E1C1D918E3150EDB285BDADA
:1017800014D0780EDF5C09E0580EDF5C06E0620ED4
:10179000DF5C03E0420EDF5C08E1020EF36E160E22
:1017A000F3CFDBFF02D0150EDB6A030EDB50100B0C
:1017B0000EE0040EDBCF14F0050EDB50D88014547D
:1017C00006E2060EDB5003E1040EDB5034DA95D955
:1017D0000AE2050EDBCFE7FF150EDB50E75E050ED4
:1017E000E7CFDBFF02D0050EDB6A040EDBCF14F07F
:1017F000160E45D9D880145414E2160EDBCFE6FF3E
:10180000150EDBCFE6FF040EDBCFE6FF050EDB5047
:10181000E552E75CE552D880E754E552D880E754BA
:101820005FD9030EDB50010B0BE1080EDB5008E023
:10183000B2D801E08DD0080EDB50BED8080EDB6AAE
:10184000170EDB5007E088D9170EF1D903E1151CFC
:1018500001E17ED0160EDB5016E07ED9300EE66E2A
:101860009FD802E1151C74E077D9DFCFE6FF38EC92
:1018700015F0E552E552E552F4CF15F00001F31CE6
:1018800002E1151C65E0050EDBCF14F0160EDB50EF
:10189000D880145409E2050EDBCFE7FF160EDB50AB
:1018A000E75E050EE7CFDBFF300EE66E050ECBD907
:1018B0004FE1390EDB2ADBCFE9FF3A0E01E3DB2AE9
:1018C000DBCFEAFF090EEFCFDBFFDB500EE044D9A0
:1018D000090EADD902E1151C3BE0390EDB2ADBCF46
:1018E000E9FF3A0EEDE3DB2AEBD755D831E1160ECE
:1018F000DBCFE6FF080EC3D8E552E7245DD82ED033
:10190000070EDB50030A1CE0010A14E0030A07E09B
:101910007BD9DBCFEEFF020EDBCFEDFF1FD0F5D87A
:10192000196A17AE02D0186819682CD8BCD819C02B
:10193000EEFF14D0EAD817BE186824D8B4D80ED059
:1019400063D9DBCFEFFF0AD07BD905E1151C03E19A
:10195000F368F46810D0FCD801E3DB2A79D94DEFA5
:1019600008F0010EDBCF14F0020EDBCF15F014C02F
:10197000F3FF15C0F4FF3B0EE15C02E2E16AE552C1
:10198000E16ECBD029D9020EB3EF0DF061D908007A
:10199000F550DF6E1200200EE66E080E23EF0EF0FB
:1019A00038EC15F0E552E552E552F3CF14F0F4CFE0
:1019B00015F00001F31C1200146E156AD950010FC6
:1019C0004DD91450EE261550ED221200185E000E6F
:1019D000195AF70E18C0DBFFF80E19C0DBFF18C04C
:1019E000E9FF19C0EAFF1200DBCFF4FFF350F45C0B
:1019F0001200DB50E76E040EE7CFDBFF12000A0E89
:101A0000DBCF14F00B0EDBCF15F00C0EDBCF16F096
:101A10000D0EDBCF17F01450151016101710120012
:101A2000130EEECFDBFF140EEDCFDBFF130EDBCF7B
:101A300014F0140EDBCF15F00001800E1514120007
:101A4000F70EDBCF18F0F80EDBCF19F01200050E01
:101A5000DB50E66ED950130F01D9E552E750EE6E18
:101A6000ED6A12000A0EDBCF06F00B0EDBCF07F09B
:101A70000C0EDBCF08F00D0EDBCF09F01200DBCF30
:101A8000E6FF150EDBCFE6FF050EDB50E552E7243F
:101A9000E552E7241200DB50CED8010EF36E060E9D
:101AA000F3CFDBFF1200EE50EFCFEAFFE96E16C076
:101AB000EEFF17C0EEFF18C0EEFF1200D9CFE6FF11
:101AC000DACFE6FFE1CFD9FFE2CFDAFF1200DFCFB6
:101AD000E6FFE66A52EC16F0E552E552F3501200CA
:101AE000E76E080EE7CFDBFF1200EECF14F0EECF6B
:101AF00015F0EFCF16F0176A1200050EDBCF14F0C9
:101B0000150EDB50D88014541200010EDBCF16F0F6
:101B1000020EDBCF17F0186A1200E552E5CFDAFFAC
:101B2000E7CFD9FF12000A0E14C0DBFF0B0E15C061
:101B3000DBFF1200D9500A0F2EEF0EF0F36E070EE6
:101B4000F3CFDBFF1200EECF14F0EFCF15F0120051
:101B5000010EDB2A020E1200FC0EDBCFE6FFFD0EAB
:101B6000DBCFE6FF1200145E000E155AF70E14C00C
:101B7000DBFFF80E15C0DBFF14C0E9FF15C0EAFF5C
:101B80001200DA20EA6EEF2AEECFF6FF000EEF2207
:101B9000EECFF7FFEF22EECFF8FF1200040EDBCFFF
:101BA000E6FF130EDB50E552E75C9ADFDB5004DF03
:101BB000060EDB501200090EDB500A0DF350DF2435
:101BC000D00FE76E090EE7CFDBFFC6EF0CF0DB505E
:101BD000F36E050EF4EF0CF0F70EDBCF14F0F80EF9
:101BE000DBCF15F01200DFCFE6FFD0EF0CF028DFDF
:101BF000030EECDE75EF0DF022EC08F0E552E55235
:101C0000E552E55200091200BDDEEE50EFCFEAFFCB
:101C1000E96E010E1200130EDB50F36E040EF4EFAA
:101C20000CF0040EDB50F36E090EF4EF0CF0DBCF7A
:101C3000E6FFD0EF0CF0E76E050EE7CFDBFF1200FA
:101C40008BDFF3EF0DF0DBCFE6FF86DFFCEF0DF06F
:101C5000D950F90FE96EFF0EC1EF0DF0E96E000EDD
:061C6000DA20EA6E12001A
:0A1C6600800EE66E85DAE552890E65
:101C7000706ED80E716E020E726E100E736E778ECD
:101C8000779C606A0F01506B0E01206B306B406BCC
:101C9000506B606B706B0D01F80EF86F0F01006BED
:101CA000016B046B056B086B096B0C6B0D6B106B98
:101CB000116B146B156B0D013F0ED46FD56BE06B80
:101CC000110EE16FE26FE36BE46BE56BE66BE76BC4
:101CD000500EF06F050EF16FF26BF26B0F01186B87
:101CE000196B19971C6B1D6B1D97E66A44DAE55258
:101CF0001200D9CFE6FFE1CFD9FF1A0EE126D95065
:101D0000060FE96EDACFEAFF400EEE6E0F0EED6EB3
:101D1000D950080FE96EDACFEAFF300EEE6E0F0EE3
:101D2000ED6ED9500A0FE96EDACFEAFF200EEE6EA3
:101D30000F0EED6ED9500C0FE96EDACFEAFF200ED0
:101D4000EE6E0E0EED6ED9500E0FE96EDACFEAFF91
:101D5000300EEE6E0E0EED6ED950100FE96EDACF2A
:101D6000EAFF400EEE6E0E0EED6ED950120FE96EC8
:101D7000DACFEAFF500EEE6E0E0EED6ED950140F54
:101D8000E96EDACFEAFF600EEE6E0E0EED6ED95000
:101D9000160FE96EDACFEAFF700EEE6E0E0EED6EE4
:101DA0000D01F8417F0BE76E190EE7CFDBFFDF6A0D
:101DB000080EDF5C01E3E4D0D950060F146EDACFD1
:101DC00015F0DF50020D1450F324E96E1550F42085
:101DD000EA6E020EEECFDBFF030EEDCFDBFF020E4D
:101DE000DBCF08F0030EDBCF09F0040E08C0DBFFE9
:101DF000050E09C0DBFFDF50020810E2190EDBCF31
:101E0000F3FFF390F342F3CFDBFFD950190FE96EE4
:101E1000DACFEAFFEF50010B01E1B0D0020EDBCFC9
:101E2000E9FF030EDBCFEAFFEF50080B01E0A6D07D
:101E3000FC0E146E020EDBCFE9FF030EDBCFEAFFD0
:101E40001450EF16F70EDB50030B146E020EDBCFAF
:101E5000E9FF030EDBCFEAFF1450EF12F70EDBAC05
:101E600008D0F80EDB504009E76E180EE7CFDBFF15
:101E700006D0F80EDB50E76E180EE7CFDBFF050E3D
:101E8000E76E020EDBCFE9FF030EDBCFEAFFE75080
:101E9000E926000EEA22180EDBCFEFFFF70EDBAAD1
:101EA00006D0010EF36E180EF3CFDBFF02D0180E32
:101EB000DB6ADBCFE6FFD950FB0FE96EFF0EDA20BD
:101EC000EA6EEECFE6FFEECFE6FFEECFE6FFEFCF16
:101ED000E6FF010EE76E020EDBCF14F0030EDBCF40
:101EE00015F0E7501426000E152214C0E6FF15C0A9
:101EF000E6FF56D9166E070EE15E1650D950020F56
:101F0000E96EDACFEAFF060EEE26000EED22010E94
:101F1000DB6AF80EDB50F36E010EDBCFF4FFF350FB
:101F2000F45C1AE2F90EDBCFE9FFDB2AFA0EDBCF15
:101F3000EAFF01E3DB2AEF50E66E020EDBCFE9FF9A
:101F4000DB2A030EDBCFEAFF01E3DB2AE552E75091
:101F5000EF6E010EDB2ADDD7040EDBCFE9FF050EA5
:101F6000DBCFEAFFEF50040B07E1040EDBCFE9FF04
:101F7000050EDBCFEAFFEF86010E04D0DF2A18D76B
:101F8000000E00D0146E1A0EE15C02E2E16AE55226
:101F9000E16E1450E552E7CFD9FF1200D9CFE6FF2A
:101FA000E1CFD9FF060EE1260001AB6B74AE15D070
:101FB000070E6F14E66EBDDAE552F3CFDEFFF4CF05
:101FC000DDFFDECFE9FFDDCFEAFFEF501F0B0001A1
:101FD000AB6FA49274AC0BD002D0000EC0D0F70E41
:101FE000DBCFE9FFF80EDBCFEAFFEF86749CD9CF99
:101FF000E9FFDACFEAFF020EEECFDBFF030EEDCFF3
:10200000DBFFF70EDBCFE9FFF80EDBCFEAFFEF6A6D
:10201000DECFE9FFDDCFEAFF050EE926000EEA225A
:10202000050EEFCFDBFFDB500F0BE66EF90EDBCFBB
:10203000E9FFFA0EDBCFEAFFE552E750EF6ED95029
:10204000050FE96EDACFEAFFEF50400B07E0F70E1D
:10205000DBCFE9FFF80EDBCFEAFFEF8CDECFE9FF45
:10206000DDCFEAFF020EE926000EEA22050EEFCFD1
:10207000DBFFD950050FE96EDACFEAFFEF50080B0E
:102080000DE0F70EDBCFE9FFF80EDBCFEAFFEF8ABA
:10209000010EF36E050EF3CFDBFF02D0050EDB6AF7
:1020A000DBCFE6FFFD0EDBCFE6FFFE0EDBCFE6FF6C
:1020B000DECF14F0DDCF15F0010E1426000E152230
:1020C00014C0E6FF15C0E6FF4BD9166E050EE15EA3
:1020D0001650060EDE26000EDD22F90EDBCFE9FFDC
:1020E000FA0EDBCFEAFF050EEFCFDBFF040EDB6A53
:1020F000050EDB50F36E040EDBCFF4FFF350F45CFF
:1021000019E2DFCFE9FFDF2A010EDBCFEAFF01E3AF
:10211000DB2AEF50E66EFB0EDBCFE9FFDB2AFC0E7D
:10212000DBCFEAFF01E3DB2AE552E750EF6E040E56
:10213000DB2ADED7A4AE08D0F70EDBCFE9FFF80E1E
:10214000DBCFEAFFEF88A49E020EDBCFE9FF030E90
:10215000DBCFEAFFEF9E749E749E010E00D0146EDA
:10216000060EE15C02E2E16AE552E16E1450E552CE
:10217000E7CFD9FF1200D9CFE6FFE1CFD9FF1F0E7D
:102180006F16FE0EDB506F12E00E6E14146EFE0E14
:10219000DB50145C01E0F8D7E552E7CFD9FF12001D
:1021A000D9CFE6FFE1CFD9FF020EE126D950F90FD2
:1021B000146EFF0EDA20156E14C0DEFF15C0DDFFB1
:1021C000F80EDB503BE1DECFE9FFDDCFEAFFEF5059
:1021D000E840E840E8401F0BE66EFD0EDBCFE9FF6C
:1021E000FE0EDBCFEAFFE552E750EF6EDECFE9FFF0
:1021F000DDCFEAFFEE52EF50200DF3CF14F0FD0ECD
:10220000DBCFE9FFFE0EDBCFEAFF1450EF12FD0E2D
:10221000DB2AFE0E01E3DB2ADECFE9FFDDCFEAFF9A
:10222000EF50200DF350E66EFD0EDBCFE9FFFE0E02
:10223000DBCFEAFFE552E750EF6E88D0DECFE9FF53
:10224000DDCFEAFF020EE926000EEA22EF50E00B96
:10225000E838E840E66EFD0EDBCFE9FFFE0EDBCF8F
:10226000EAFFE552E750EF6EDECFE9FFDDCFEAFF90
:10227000030EE926000EEA22EF50080DF3CF14F00A
:10228000FD0EDBCFE9FFFE0EDBCFEAFF1450EF12AD
:10229000FD0EDB2AFE0E01E3DB2ADECFE9FFDDCFF8
:1022A000EAFF020EE926000EEA22EF50080DF35075
:1022B000E00BE66EFD0EDBCFE9FFFE0EDBCFEAFFA3
:1022C000E552E750EF6EFD0EDBCFE9FFFE0EDBCFF0
:1022D000EAFFEF86DECFE9FFDDCFEAFF020EE92657
:1022E000000EEA22EF50030B146EFD0EDBCFE9FF68
:1022F000FE0EDBCFEAFF1450EF12FD0EDB2AFE0EBE
:1023000001E3DB2ADECFE9FFDDCFEAFFEE52EF503B
:10231000E66EFD0EDBCFE9FFFE0EDBCFEAFFE552F6
:10232000E750EF6EFD0EDB2AFE0E01E3DB2ADECF67
:10233000E9FFDDCFEAFFEF50E66EFD0EDBCFE9FFF0
:10234000FE0EDBCFEAFFE552E750EF6E020EE15CD6
:1023500002E2E16AE552E16EE552E7CFD9FF1200F1
:10236000D9CFE6FFE1CFD9FF020EE126FB0EDBCF8E
:10237000DEFFDBCFDDFFFA0EDB504DE1FD0EDBCFE4
:10238000E9FFFE0EDBCFEAFFEF50080DF350E66EDB
:10239000DECFE9FFDDCFEAFFE552E750EF6EFD0E3D
:1023A000DBCFE9FFFE0EDBCFEAFFEF50E00BE838B2
:1023B000E840E66EDECFE9FFDDCFEAFFEE52E55200
:1023C000E750EF6EFD0EDB2AFE0E01E3DB2AFD0E69
:1023D000DBCFE9FFFE0EDBCFEAFFEF50E00BE83882
:1023E000E840146EDECFE9FFDDCFEAFF1450EF12B4
:1023F000DECFE9FFDDCFEAFF020EE926000EEA227A
:10240000EF6ADECFE9FFDDCFEAFF030EE926000E1B
:10241000EA22EF6A84D0FD0EDBCFE9FFFE0EDBCFB0
:10242000EAFFEF50200DF350E66EDECFE9FFDDCF7F
:10243000EAFF020EE926000EEA22E552E750EF6EAF
:10244000FD0EDBCFE9FFFE0EDBCFEAFFEF50E840E9
:10245000E840E8401F0BE66EDECFE9FFDDCFEAFF84
:10246000030EE926000EEA22E552E750EF6EFD0E5C
:10247000DB2AFE0E01E3DB2AFD0EDBCFE9FFFE0EB9
:10248000DBCFEAFFEF50030B146EDECFE9FFDDCFA9
:10249000EAFF020EE926000EEA221450EF12FD0EAA
:1024A000DBCFE9FFFE0EDBCFEAFFEF50E00BE840A9
:1024B000E840E8401F0B146EDECFE9FFDDCFEAFFF6
:1024C000020EE926000EEA221450EF12FD0EDB2A5E
:1024D000FE0E01E3DB2AFD0EDBCFE9FFFE0EDBCFB4
:1024E000EAFFEF50E66EDECFE9FFDDCFEAFFEE5206
:1024F000E552E750EF6EFD0EDB2AFE0E01E3DB2A0C
:10250000FD0EDBCFE9FFFE0EDBCFEAFFEF50E66EFC
:10251000DECFE9FFDDCFEAFFE552E750EF6E020EB6
:10252000E15C02E2E16AE552E16EE552E7CFD9FFF4
:102530001200D9CFE6FFE1CFD9FF020EE126FE0E51
:10254000DB50060A2FE0030A28E0010A21E0070A0F
:102550001AE0010A13E0030A0CE0010A05E0700E1C
:10256000DE6E0E0EDD6E23D0600EDE6E0F0EDD6EA3
:102570001ED0500EDE6E0F0EDD6E19D0200EDE6EF8
:102580000E0EDD6E14D0300EDE6E0E0EDD6E0FD030
:10259000400EDE6E0E0EDD6E0AD0500EDE6E0E0E9A
:1025A000DD6E05D0600EDE6E0E0EDD6E00D0DECF6D
:1025B00014F0DDCF15F014C0F3FF15C0F4FF020EC8
:1025C000E15C03E200D0E16AE552E16EE552E7CF5B
:0425D000D9FF12001D
:0C25D40020204741544F2044454C205328
:1025E0004F4C2049562020200074686520554B2010
:1025F000536F6C6172204361722E20202000796F2E
:10260000752068617665207374617274656420203A
:10261000202000436F6E67726174756C6174696F1E
:102620006E732020202020000D25730A00202057E3
:10263000616974696E67206F6E20425053203120AB
:1026400020000D53657269616C20506F7274204FC9
:102650006E6C696E650A0042617474204375727213
:10266000656E743A202D253032642E253032640098
:10267000426174742043757272656E743A2020252D
:1026800030326C642E2530326C64004261747420E8
:102690004C6F773A20253031642E2530326420206B
:1026A000202020200042617474204176673A202562
:1026B0003031642E2530326420202020202000423A
:1026C00061747420486967683A20253031642E258A
:1026D00030326420202020200020202020202020B4
:1026E000202020202020202020202020200020200A
:1026F0004741544F2044454C20534F4C20495621CC
:1027000020200020202020554B20536F6C61722028
:10271000436172202020200020202057656C636FC9
:102720006D6520746F2074686520202000536572E9
:1027300069616C20506F7274204F6E6C696E650A0F
:022740000D008A
:0E274200006AE86A0EAEAEEF13F00B6C0C1ED0
:102750000D1E0E1E0C220D220E22001E09AEB9EF18
:1027600013F0066C071E081E091E07220822092204
:10277000001EE5EC15F009BED0EF13F000AE000C22
:10278000066C071E081E091EE86A07220822092295
:10279000026C031E041E051E032204220522000CE7
:1027A00000BEC0EF13F00188FF0C09C013F008C091
:1027B00012F008500D02F4CF07F0F3CF06F00950E5
:1027C0000E02F4CF09F0F3CF08F00D02F350072604
:1027D000F4500822E86A092212500E02F35007262C
:1027E000F4500822E86A09220EAEFBEF13F01250F3
:1027F000085E1350095A13AE000C0D50085E0E50BF
:04280000095A000C65
:0C280400D9CFE6FFDACFE6FFE1CFD9FF25
:10281000E2CFDAFFE652E652E652E652D950F90F1D
:10282000146EFF0EDA20156E020E14C0DBFF030ECD
:1028300015C0DBFF020EDBCFE6FF030EDBCFE6FFAA
:10284000F90EDBCFE6FFFA0EDBCFE6FFFB0EDBCFA8
:10285000E6FFD950FC0FE66EFF0EDA20E66E38EC8C
:1028600008F0146E070EE15C02E2E16AE552E16EE7
:102870001450F3CFDEFFF4CFDDFFFC0EDBCFE9FF1A
:10288000FD0EDBCFEAFFEF6ADECF14F0DDCF15F0EF
:1028900014C0F3FF15C0F4FF040EE15C02E2E16A2C
:1028A000E552E16EE552E5CFDAFFE7CFD9FF12003E
:1028B000060EF66E000EF76E000EF86E00010900AF
:1028C000F550A46F0900F550A56F03E1A46701D08E
:1028D0003DD00900F5509F6F0900F550A06F090029
:1028E000F550A16F09000900F550E96E0900F55097
:1028F000EA6E090009000900F550A26F0900F550C1
:10290000A36F09000900F6CFA6F0F7CFA7F0F8CF24
:10291000A8F09FC0F6FFA0C0F7FFA1C0F8FF00011C
:10292000A25302E1A35307E00900F550EE6EA2079F
:10293000F8E2A307F9D7A6C0F6FFA7C0F7FFA8C023
:0E294000F8FF0001A407000EA55BBFD7120030
:02294E00D9CFDF
:10295000E6FFDACFE6FFE1CFD9FFE2CFDAFFE652BA
:10296000E652E652E652D950FB0F146EFF0EDA2003
:10297000156E14C0DEFFDD6EDECFE6FFDDCFE6FFB5
:10298000FB0EDBCFE6FFFC0EDBCFE6FFFD0EDBCF61
:10299000E6FFA9C0E6FFAAC0E6FF38EC08F0146E17
:1029A000070EE15C02E2E16AE552E16E1450020EAC
:1029B000F3CFDBFF030EF4CFDBFF020EDBCF14F00F
:1029C000030EDBCF15F014C0F3FF15C0F4FF040EA7
:1029D000E15C02E2E16AE552E16EE552E5CFDAFF41
:0629E000E7CFD9FF120051
:0A29E600D9CFE6FFDACFE6FFE1CF1C
:1029F000D9FFE2CFDAFFAC6AAB6AFD0EDBB0AC8880
:102A0000DBA202D0AC8CAB8CDBB4AC8EDBA602D0EC
:102A1000AB8801D0AB8ADBB8AC849E98DBBAAB86BE
:102A2000DBAC02D09D8A01D09D9A9E9ADBAE02D08B
:102A30009D8801D09D98FB0EDB50AF6EFB0EFC0E07
:102A4000DBCF15F015C014F0156A1450B06EAC8AC7
:102A5000AB8E949C948EAC50100B04E0AC50800B69
:102A600001E1948CE552E5CFDAFFE7CFD9FF120000
:102A7000D9CFE6FFDACFE6FFE1CFD9FFE2CFDAFF29
:102A8000FB0EDBCF14F0FC0EDBCF15F00001800E47
:102A900015141AE1FB0EDBCFE9FFFC0EDBCFEAFFDA
:102AA000EECFF3FFEDCFF4FFEE2A000EEF22F3CFCF
:102AB000E9FFF4CFEAFFFD0EDBCFEFFFEF50156A21
:102AC000F36E15C0F4FF10D0FB0EDB50FE0806E1DC
:102AD000FD0EDBCFE6FF72EC16F005D0FD0EDBCF6E
:102AE000E6FF90EC16F0E552E552E5CFDAFFE7CFCE
:042AF000D9FF1200F8
:0C2AF40006500B02F3CF02F0F4CF03F009
:102B00000C02F3500326000EF420046E06500D0252
:102B1000F3500426000EF420056E06500E02F3500A
:102B2000052607500B02F3500326F4500422000E32
:102B3000052207500C02F3500426F45005220750DA
:102B40000D02F350052608500B02F3500426F450F2
:102B5000052208500C02F350052609500B02F350D1
:042B60000526120034
:0C2B6400FE0EE3CFE9FFFF0EE3CFEAFF17
:102B7000F36AF46AEE5203E0F34AF42AFBD7120038
:102B8000FF0EE3CFF8FFE552FF0EE3CFF7FFE5526C
:102B9000FF0EE3CFF6FFE552E66AE66AE66A090051
:102BA000F55209E0FD0EE32A05E1FE0EE32A02E1FB
:102BB000FF0EE32AF4D7FD0EE3CF07F0FE0EE3CFBE
:0A2BC00008F0FF0EE3CF09F0120049
:062BCA00056A046A036ABB
:102BD000026A200EE76ED8900636073608360936A8
:102BE00002360336043605360B50025C0C5003588F
:102BF0000D5004580E50055809E30B50025E0C505E
:102C0000035A0D50045A0E50055A062AE72EE4D7EF
:022C10001200B0
:0E2C1200470EE66EE66A3C0EE66EF3EC14F03A
:102C2000E552E552E5522D0E146E270E156E166A0A
:102C300014C0E6FF15C0E6FF16C0E6FFA7EC14F0CF
:0A2C4000E552E552E55200D0120003
:062C4A00FF0EE350216EB5
:102C5000EF0E01D0F30EE76EE72E2CEF16F00C0E00
:102C6000206EE76AE72E32EF16F0202E31EF16F0D5
:082C7000212E2AEF16F01200DC
:082C7800056A046A100EE76E04
:102C8000D89008360936043605360D50045C0E50CF
:102C9000055805E30D50045E0E50055A082AE72E2C
:042CA000F0D7120057
:0C2CA400F36AF46AFF0EE124E96EFF0EF3
:102CB000E220EA6EED6607D02F0EEF6404D03A0EE4
:082CC000EF6001D0F32A1200BD
:082CC80012EE00F022EE00F014
:102CD000F86A019C58EC14F091EC16F010EC00F03E
:042CE000FBD712000C
:0C2CE400FF0EE350ACBA04D0AF6AAB8E18
:102CF000AC8A949CACA2FED7AD6EF36EF46A12005F
:102D00003031323334353637383961626364656661
:012D100000C2
:0E2D120000EE00F00D0EEE6AEA62FDD7120030
:022D200012009F
:022D220012009D
:022D2400FEFFB0
:0A2D260001002020202020202020A2
:102D3000202020202020202020202020006A6F68D2
:102D40006E42726F616462656E74202020202020C4
:102D5000206761727942726F616462656E742020CF
:052D60002020202020CE
:020000040030CA
:0100010002FC
:010002001FDE
:010003001EDE
:010006008178
:00000001FF
